{
  "contractName": "driversContract",
  "abi": [
    {
      "inputs": [],
      "stateMutability": "nonpayable",
      "type": "constructor"
    },
    {
      "inputs": [
        {
          "internalType": "uint256",
          "name": "",
          "type": "uint256"
        }
      ],
      "name": "drivers",
      "outputs": [
        {
          "internalType": "uint256",
          "name": "id",
          "type": "uint256"
        },
        {
          "internalType": "string",
          "name": "emailId",
          "type": "string"
        },
        {
          "internalType": "string",
          "name": "name",
          "type": "string"
        },
        {
          "internalType": "address",
          "name": "walletAddress",
          "type": "address"
        },
        {
          "internalType": "string",
          "name": "vehicleType",
          "type": "string"
        }
      ],
      "stateMutability": "view",
      "type": "function",
      "constant": true
    },
    {
      "inputs": [],
      "name": "totaldrivers",
      "outputs": [
        {
          "internalType": "uint256",
          "name": "",
          "type": "uint256"
        }
      ],
      "stateMutability": "view",
      "type": "function",
      "constant": true
    },
    {
      "inputs": [
        {
          "internalType": "string",
          "name": "emailId",
          "type": "string"
        },
        {
          "internalType": "address payable",
          "name": "walletAddress",
          "type": "address"
        },
        {
          "internalType": "string",
          "name": "name",
          "type": "string"
        },
        {
          "internalType": "string",
          "name": "vehicleType",
          "type": "string"
        }
      ],
      "name": "createDriver",
      "outputs": [
        {
          "internalType": "int256",
          "name": "",
          "type": "int256"
        }
      ],
      "stateMutability": "nonpayable",
      "type": "function"
    },
    {
      "inputs": [
        {
          "internalType": "uint256",
          "name": "id",
          "type": "uint256"
        }
      ],
      "name": "deletedriver",
      "outputs": [
        {
          "internalType": "bool",
          "name": "success",
          "type": "bool"
        }
      ],
      "stateMutability": "nonpayable",
      "type": "function"
    },
    {
      "inputs": [
        {
          "internalType": "uint256",
          "name": "id",
          "type": "uint256"
        }
      ],
      "name": "getdriver",
      "outputs": [
        {
          "components": [
            {
              "internalType": "uint256",
              "name": "id",
              "type": "uint256"
            },
            {
              "internalType": "string",
              "name": "emailId",
              "type": "string"
            },
            {
              "internalType": "string",
              "name": "name",
              "type": "string"
            },
            {
              "internalType": "address",
              "name": "walletAddress",
              "type": "address"
            },
            {
              "internalType": "string",
              "name": "vehicleType",
              "type": "string"
            }
          ],
          "internalType": "struct driversContract.driver",
          "name": "",
          "type": "tuple"
        }
      ],
      "stateMutability": "view",
      "type": "function",
      "constant": true
    },
    {
      "inputs": [],
      "name": "getTotaldrivers",
      "outputs": [
        {
          "internalType": "uint256",
          "name": "Totaldrivers",
          "type": "uint256"
        }
      ],
      "stateMutability": "view",
      "type": "function",
      "constant": true
    }
  ],
  "bytecode": "0x608060405234801561001057600080fd5b50600060018190555061142d806100286000396000f3fe608060405234801561001057600080fd5b50600436106100625760003560e01c80630a9e56a9146100675780632eb416e8146100975780634761316f146100b55780636c9e9c6e146100e5578063cac891cf14610103578063f79e545014610133575b600080fd5b610081600480360381019061007c91906109ae565b610167565b60405161008e91906109f6565b60405180910390f35b61009f610332565b6040516100ac9190610a20565b60405180910390f35b6100cf60048036038101906100ca9190610bdf565b610338565b6040516100dc9190610cb3565b60405180910390f35b6100ed610468565b6040516100fa9190610a20565b60405180910390f35b61011d600480360381019061011891906109ae565b610472565b60405161012a9190610e01565b60405180910390f35b61014d600480360381019061014891906109ae565b6106c4565b60405161015e959493929190610e7c565b60405180910390f35b6000600154821061017b576000905061032d565b60006001805461018b9190610f13565b8154811061019c5761019b610f47565b5b9060005260206000209060050201600083815481106101be576101bd610f47565b5b906000526020600020906005020160008201548160000155600182018160010190816101ea9190611198565b50600282018160020190816101ff9190611198565b506003820160009054906101000a900473ffffffffffffffffffffffffffffffffffffffff168160030160006101000a81548173ffffffffffffffffffffffffffffffffffffffff021916908373ffffffffffffffffffffffffffffffffffffffff1602179055506004820181600401908161027b9190611198565b5090505060006001805461028f9190610f13565b815481106102a05761029f610f47565b5b90600052602060002090600502016000808201600090556001820160006102c791906108c2565b6002820160006102d791906108c2565b6003820160006101000a81549073ffffffffffffffffffffffffffffffffffffffff021916905560048201600061030e91906108c2565b50506001600081548092919061032390611280565b9190505550600190505b919050565b60015481565b6000806040518060a001604052806001805461035491906112a9565b81526020018781526020018581526020018673ffffffffffffffffffffffffffffffffffffffff1681526020018481525090806001815401808255809150506001900390600052602060002090600502016000909190919091506000820151816000015560208201518160010190816103cd91906112dd565b5060408201518160020190816103e391906112dd565b5060608201518160030160006101000a81548173ffffffffffffffffffffffffffffffffffffffff021916908373ffffffffffffffffffffffffffffffffffffffff160217905550608082015181600401908161044091906112dd565b50505060016000815480929190610456906113af565b91905055506001549050949350505050565b6000600154905090565b61047a610902565b6000828154811061048e5761048d610f47565b5b90600052602060002090600502016040518060a0016040529081600082015481526020016001820180546104c190610fa5565b80601f01602080910402602001604051908101604052809291908181526020018280546104ed90610fa5565b801561053a5780601f1061050f5761010080835404028352916020019161053a565b820191906000526020600020905b81548152906001019060200180831161051d57829003601f168201915b5050505050815260200160028201805461055390610fa5565b80601f016020809104026020016040519081016040528092919081815260200182805461057f90610fa5565b80156105cc5780601f106105a1576101008083540402835291602001916105cc565b820191906000526020600020905b8154815290600101906020018083116105af57829003601f168201915b505050505081526020016003820160009054906101000a900473ffffffffffffffffffffffffffffffffffffffff1673ffffffffffffffffffffffffffffffffffffffff1673ffffffffffffffffffffffffffffffffffffffff16815260200160048201805461063b90610fa5565b80601f016020809104026020016040519081016040528092919081815260200182805461066790610fa5565b80156106b45780601f10610689576101008083540402835291602001916106b4565b820191906000526020600020905b81548152906001019060200180831161069757829003601f168201915b5050505050815250509050919050565b600081815481106106d457600080fd5b90600052602060002090600502016000915090508060000154908060010180546106fd90610fa5565b80601f016020809104026020016040519081016040528092919081815260200182805461072990610fa5565b80156107765780601f1061074b57610100808354040283529160200191610776565b820191906000526020600020905b81548152906001019060200180831161075957829003601f168201915b50505050509080600201805461078b90610fa5565b80601f01602080910402602001604051908101604052809291908181526020018280546107b790610fa5565b80156108045780601f106107d957610100808354040283529160200191610804565b820191906000526020600020905b8154815290600101906020018083116107e757829003601f168201915b5050505050908060030160009054906101000a900473ffffffffffffffffffffffffffffffffffffffff169080600401805461083f90610fa5565b80601f016020809104026020016040519081016040528092919081815260200182805461086b90610fa5565b80156108b85780601f1061088d576101008083540402835291602001916108b8565b820191906000526020600020905b81548152906001019060200180831161089b57829003601f168201915b5050505050905085565b5080546108ce90610fa5565b6000825580601f106108e057506108ff565b601f0160209004906000526020600020908101906108fe9190610947565b5b50565b6040518060a00160405280600081526020016060815260200160608152602001600073ffffffffffffffffffffffffffffffffffffffff168152602001606081525090565b5b80821115610960576000816000905550600101610948565b5090565b6000604051905090565b600080fd5b600080fd5b6000819050919050565b61098b81610978565b811461099657600080fd5b50565b6000813590506109a881610982565b92915050565b6000602082840312156109c4576109c361096e565b5b60006109d284828501610999565b91505092915050565b60008115159050919050565b6109f0816109db565b82525050565b6000602082019050610a0b60008301846109e7565b92915050565b610a1a81610978565b82525050565b6000602082019050610a356000830184610a11565b92915050565b600080fd5b600080fd5b6000601f19601f8301169050919050565b7f4e487b7100000000000000000000000000000000000000000000000000000000600052604160045260246000fd5b610a8e82610a45565b810181811067ffffffffffffffff82111715610aad57610aac610a56565b5b80604052505050565b6000610ac0610964565b9050610acc8282610a85565b919050565b600067ffffffffffffffff821115610aec57610aeb610a56565b5b610af582610a45565b9050602081019050919050565b82818337600083830152505050565b6000610b24610b1f84610ad1565b610ab6565b905082815260208101848484011115610b4057610b3f610a40565b5b610b4b848285610b02565b509392505050565b600082601f830112610b6857610b67610a3b565b5b8135610b78848260208601610b11565b91505092915050565b600073ffffffffffffffffffffffffffffffffffffffff82169050919050565b6000610bac82610b81565b9050919050565b610bbc81610ba1565b8114610bc757600080fd5b50565b600081359050610bd981610bb3565b92915050565b60008060008060808587031215610bf957610bf861096e565b5b600085013567ffffffffffffffff811115610c1757610c16610973565b5b610c2387828801610b53565b9450506020610c3487828801610bca565b935050604085013567ffffffffffffffff811115610c5557610c54610973565b5b610c6187828801610b53565b925050606085013567ffffffffffffffff811115610c8257610c81610973565b5b610c8e87828801610b53565b91505092959194509250565b6000819050919050565b610cad81610c9a565b82525050565b6000602082019050610cc86000830184610ca4565b92915050565b610cd781610978565b82525050565b600081519050919050565b600082825260208201905092915050565b60005b83811015610d17578082015181840152602081019050610cfc565b60008484015250505050565b6000610d2e82610cdd565b610d388185610ce8565b9350610d48818560208601610cf9565b610d5181610a45565b840191505092915050565b6000610d6782610b81565b9050919050565b610d7781610d5c565b82525050565b600060a083016000830151610d956000860182610cce565b5060208301518482036020860152610dad8282610d23565b91505060408301518482036040860152610dc78282610d23565b9150506060830151610ddc6060860182610d6e565b5060808301518482036080860152610df48282610d23565b9150508091505092915050565b60006020820190508181036000830152610e1b8184610d7d565b905092915050565b600082825260208201905092915050565b6000610e3f82610cdd565b610e498185610e23565b9350610e59818560208601610cf9565b610e6281610a45565b840191505092915050565b610e7681610d5c565b82525050565b600060a082019050610e916000830188610a11565b8181036020830152610ea38187610e34565b90508181036040830152610eb78186610e34565b9050610ec66060830185610e6d565b8181036080830152610ed88184610e34565b90509695505050505050565b7f4e487b7100000000000000000000000000000000000000000000000000000000600052601160045260246000fd5b6000610f1e82610978565b9150610f2983610978565b9250828203905081811115610f4157610f40610ee4565b5b92915050565b7f4e487b7100000000000000000000000000000000000000000000000000000000600052603260045260246000fd5b7f4e487b7100000000000000000000000000000000000000000000000000000000600052602260045260246000fd5b60006002820490506001821680610fbd57607f821691505b602082108103610fd057610fcf610f76565b5b50919050565b600081549050610fe581610fa5565b9050919050565b60008190508160005260206000209050919050565b60006020601f8301049050919050565b600082821b905092915050565b60006008830261104e7fffffffffffffffffffffffffffffffffffffffffffffffffffffffffffffffff82611011565b6110588683611011565b95508019841693508086168417925050509392505050565b6000819050919050565b600061109561109061108b84610978565b611070565b610978565b9050919050565b6000819050919050565b6110af8361107a565b6110c36110bb8261109c565b84845461101e565b825550505050565b600090565b6110d86110cb565b6110e38184846110a6565b505050565b5b81811015611107576110fc6000826110d0565b6001810190506110e9565b5050565b601f82111561114c5761111d81610fec565b61112684611001565b81016020851015611135578190505b61114961114185611001565b8301826110e8565b50505b505050565b600082821c905092915050565b600061116f60001984600802611151565b1980831691505092915050565b6000611188838361115e565b9150826002028217905092915050565b8181036111a657505061127e565b6111af82610fd6565b67ffffffffffffffff8111156111c8576111c7610a56565b5b6111d28254610fa5565b6111dd82828561110b565b6000601f83116001811461120c57600084156111fa578287015490505b611204858261117c565b865550611277565b601f19841661121a87610fec565b965061122586610fec565b60005b8281101561124d57848901548255600182019150600185019450602081019050611228565b8683101561126a5784890154611266601f89168261115e565b8355505b6001600288020188555050505b5050505050505b565b600061128b82610978565b91506000820361129e5761129d610ee4565b5b600182039050919050565b60006112b482610978565b91506112bf83610978565b92508282019050808211156112d7576112d6610ee4565b5b92915050565b6112e682610cdd565b67ffffffffffffffff8111156112ff576112fe610a56565b5b6113098254610fa5565b61131482828561110b565b600060209050601f8311600181146113475760008415611335578287015190505b61133f858261117c565b8655506113a7565b601f19841661135586610fec565b60005b8281101561137d57848901518255600182019150602085019450602081019050611358565b8683101561139a5784890151611396601f89168261115e565b8355505b6001600288020188555050505b505050505050565b60006113ba82610978565b91507fffffffffffffffffffffffffffffffffffffffffffffffffffffffffffffffff82036113ec576113eb610ee4565b5b60018201905091905056fea26469706673582212201e4b70349ff929376bd6ec882c93093b8ded1407121bd803c3e9e98806c1678864736f6c63430008110033",
  "immutableReferences": {},
  "source": "// SPDX-License-Identifier: UNLICENSED\n\npragma solidity ^0.8.0;\n\ncontract driversContract {\n    \n   struct driver{\n      uint id;\n    //   string parkingId; // auto - generated\n      string emailId;\n      string name;\n      address walletAddress;\n      string vehicleType;\n   }\n  \n   driver[] public drivers; \n\n   uint256 public totaldrivers;\n  \n  \n   constructor() {\n      totaldrivers = 0;\n   }\n\n   // creating a new paking lot if it is not already created\n   function createDriver( string memory emailId ,address payable walletAddress, string memory name,string memory vehicleType) public returns (int){\n\n      drivers.push(driver(totaldrivers+1,emailId,name,walletAddress,vehicleType));\n      totaldrivers++;\n      \n      return int(totaldrivers);\n   }\n\n   \n   // delete a parking lot\n   function deletedriver(uint id) public returns(bool success){\n\n      // if id is not valid\n      if(id>=totaldrivers)    return false;\n\n      drivers[id]=drivers[totaldrivers-1];\n      delete drivers[totaldrivers-1];\n      totaldrivers--;\n      return true;\n   }\n   \n     \n   function getdriver(uint id) public view returns(driver memory){\n      return drivers[id];\n   }     \n   \n   \n   function getTotaldrivers() public view returns (uint256 Totaldrivers){\n      return totaldrivers;\n   }\n}",
  "sourcePath": "C:\\Users\\100RAV\\Desktop\\Blockchain_E-Parking-master\\contracts\\parkingProvider.sol",
  "compiler": {
    "name": "solc",
    "version": "0.8.17+commit.8df45f5f.Emscripten.clang"
  },
  "schemaVersion": "3.4.13",
  "updatedAt": "2023-06-11T14:02:24.850Z",
  "networkType": "ethereum",
  "devdoc": {
    "kind": "dev",
    "methods": {},
    "version": 1
  },
  "userdoc": {
    "kind": "user",
    "methods": {},
    "version": 1
  }
}